:020000040800F2
:1000000000500020A17E0008A1AD0008A5AD0008A9
:10001000A9AD0008ADAD0008B1AD000800000000BA
:10002000000000000000000000000000B5AD000866
:10003000B9AD000800000000BDAD0008F17E000869
:10004000F17E0008F17E0008F17E0008F17E0008D4
:10005000F17E0008F17E0008F17E0008F17E0008C4
:10006000F17E0008F17E0008F17E0008F17E0008B4
:10007000F17E0008F17E0008F17E0008F17E0008A4
:10008000F17E0008F17E0008F17E0008F17E000894
:10009000C1AD0008F17E0008F17E0008B1930008B0
:1000A000F17E0008F17E0008F17E0008F17E000874
:1000B000F17F000881820008F17E0008F17E0008CF
:1000C000F17E0008F17E0008F17E0008F17E000854
:1000D000F17E0008F17E0008F17E0008F17E000844
:1000E00091300008F17E0008F17E00080000000059
:1000F0000000000000000000000000000000000000
:0C01000000000000000000005FF808F1A3
:1001100010B5054C237833B9044B13B10448AFF341
:1001200000800123237010BD200500200000000086
:1001300090C0000808B5034B1BB103490348AFF357
:10014000008008BD000000002405002090C00008C9
:1001500081F0004102E000BF83F0004330B54FEA78
:1001600041044FEA430594EA050F08BF90EA020FE5
:100170001FBF54EA000C55EA020C7FEA645C7FEA78
:10018000655C00F0E2804FEA5454D4EB5555B8BF9B
:100190006D420CDD2C4480EA020281EA030382EA0C
:1001A000000083EA010180EA020281EA0303362D9E
:1001B00088BF30BD11F0004F4FEA01314FF4801C71
:1001C0004CEA113102D0404261EB410113F0004F83
:1001D0004FEA03334CEA133302D0524263EB43033A
:1001E00094EA050F00F0A780A4F10104D5F1200ED8
:1001F0000DDB02FA0EFC22FA05F2801841F1000133
:1002000003FA0EF2801843FA05F359410EE0A5F106
:1002100020050EF1200E012A03FA0EFC28BF4CF037
:10022000020C43FA05F3C01851EBE37101F00045ED
:1002300007D54FF0000EDCF1000C7EEB00006EEBFA
:100240000101B1F5801F1BD3B1F5001F0CD3490884
:100250005FEA30004FEA3C0C04F101044FEA4452DB
:1002600012F5800F80F09A80BCF1004F08BF5FEA62
:10027000500C50F1000041EB045141EA050130BD42
:100280005FEA4C0C404141EB010111F4801FA4F1E5
:100290000104E9D191F0000F04BF01460020B1FA3A
:1002A00081F308BF2033A3F10B03B3F120020CDA72
:1002B0000C3208DD02F1140CC2F10C0201FA0CF050
:1002C00021FA02F10CE002F11402D8BFC2F1200CB5
:1002D00001FA02F120FA0CFCDCBF41EA0C0190406B
:1002E000E41AA2BF01EB0451294330BD6FEA0404B4
:1002F0001F3C1CDA0C340EDC04F11404C4F120029F
:1003000020FA04F001FA02F340EA030021FA04F3B0
:1003100045EA030130BDC4F10C04C4F1200220FA07
:1003200002F001FA04F340EA0300294630BD21FA45
:1003300004F0294630BD94F0000F83F4801306BF0B
:1003400081F480110134013D4EE77FEA645C18BFFF
:100350007FEA655C29D094EA050F08BF90EA020F96
:1003600005D054EA000C04BF1946104630BD91EA8E
:10037000030F1EBF0021002030BD5FEA545C05D191
:100380004000494128BF41F0004130BD14F58004D0
:100390003CBF01F5801130BD01F0004545F0FE4144
:1003A00041F470014FF0000030BD7FEA645C1ABF79
:1003B000194610467FEA655C1CBF0B46024650EAB0
:1003C000013406BF52EA033591EA030F41F40021DC
:1003D00030BD00BF90F0000F04BF0021704730B562
:1003E0004FF4806404F132044FF000054FF0000137
:1003F00050E700BF90F0000F04BF0021704730B5F8
:100400004FF4806404F1320410F0004548BF4042CC
:100410004FF000013EE700BF42004FEAE2014FEA21
:1004200031014FEA02701FBF12F07F4393F07F4FFC
:1004300081F06051704732F07F4208BF704793F0FF
:100440007F4F04BF41F40021704730B54FF4607412
:1004500001F0004521F000411CE700BF50EA010215
:1004600008BF704730B54FF000050AE050EA0102BE
:1004700008BF704730B511F0004502D5404261EB2E
:1004800041014FF4806404F132045FEA915C3FF46F
:10049000D8AE4FF003025FEADC0C18BF03325FEA0C
:1004A000DC0C18BF033202EBDC02C2F1200300FABD
:1004B00003FC20FA02F001FA03FE40EA0E0021FAE2
:1004C00002F11444BDE600BF70B54FF0FF0C4CF4D0
:1004D000E06C1CEA11541DBF1CEA135594EA0C0F82
:1004E00095EA0C0F00F0DEF82C4481EA030621EABD
:1004F0004C5123EA4C5350EA013518BF52EA0335F8
:1005000041F4801143F4801338D0A0FB02CE4FF0A9
:100510000005E1FB02E506F00042E0FB03E54FF0D9
:100520000006E1FB03569CF0000F18BF4EF0010ED1
:10053000A4F1FF04B6F5007F64F5407404D25FEACD
:100540004E0E6D4146EB060642EAC62141EA555180
:100550004FEAC52040EA5E504FEACE2EB4F1FD0CC2
:1005600088BFBCF5E06F1ED8BEF1004F08BF5FEA40
:10057000500E50F1000041EB045170BD06F00046F2
:1005800046EA010140EA020081EA0301B4EB5C049F
:10059000C2BFD4EB0C0541EA045170BD41F4801197
:1005A0004FF0000E013C00F3AB8014F1360FDEBFBC
:1005B000002001F0004170BDC4F10004203C35DA98
:1005C0000C341BDC04F11404C4F1200500FA05F31B
:1005D00020FA04F001FA05F240EA020001F00042BC
:1005E00021F0004110EBD37021FA04F642EB060132
:1005F0005EEA430E08BF20EAD37070BDC4F10C045C
:10060000C4F1200500FA04F320FA05F001FA04F21F
:1006100040EA020001F0004110EBD37041F100010B
:100620005EEA430E08BF20EAD37070BDC4F1200516
:1006300000FA05F24EEA020E20FA04F301FA05F27E
:1006400043EA020321FA04F001F0004121FA04F226
:1006500020EA020000EBD3705EEA430E08BF20EAF6
:10066000D37070BD94F0000F0FD101F00046400030
:1006700041EB010111F4801F08BF013CF7D041EAB2
:10068000060195F0000F18BF704703F000465200B6
:1006900043EB030313F4801F08BF013DF7D043EA87
:1006A0000603704794EA0C0F0CEA135518BF95EA3D
:1006B0000C0F0CD050EA410618BF52EA4306D1D1C4
:1006C00081EA030101F000414FF0000070BD50EAE3
:1006D000410606BF1046194652EA430619D094EA6D
:1006E0000C0F02D150EA013613D195EA0C0F05D157
:1006F00052EA03361CBF104619460AD181EA0301AB
:1007000001F0004141F0FE4141F470014FF0000062
:1007100070BD41F0FE4141F4780170BD70B54FF0FD
:10072000FF0C4CF4E06C1CEA11541DBF1CEA13557D
:1007300094EA0C0F95EA0C0F00F0A7F8A4EB05045F
:1007400081EA030E52EA03354FEA013100F0888056
:100750004FEA03334FF0805545EA131343EA12631F
:100760004FEA022245EA111545EA10654FEA0026D4
:100770000EF000419D4208BF964244F1FD0404F58D
:10078000407402D25B084FEA3202B61A65EB0305E9
:100790005B084FEA32024FF480104FF4002CB6EBA6
:1007A000020E75EB030E22BFB61A754640EA0C0026
:1007B0005B084FEA3202B6EB020E75EB030E22BF66
:1007C000B61A754640EA5C005B084FEA3202B6EBA7
:1007D000020E75EB030E22BFB61A754640EA9C0066
:1007E0005B084FEA3202B6EB020E75EB030E22BF36
:1007F000B61A754640EADC0055EA060E18D04FEAF4
:10080000051545EA16754FEA06164FEAC30343EA93
:1008100052734FEAC2025FEA1C1CC0D111F4801F60
:100820000BD141EA00014FF000004FF0004CB6E759
:1008300011F4801F04BF01430020B4F1FD0C88BFF8
:10084000BCF5E06F3FF6AFAEB5EB030C04BFB6EB03
:10085000020C5FEA500C50F1000041EB045170BDF6
:100860000EF0004E4EEA113114EB5C04C2BFD4EB23
:100870000C0541EA045170BD41F480114FF0000EA7
:10088000013C90E645EA060E8DE60CEA135594EA23
:100890000C0F08BF95EA0C0F3FF43BAF94EA0C0F26
:1008A0000AD150EA01347FF434AF95EA0C0F7FF49B
:1008B00025AF104619462CE795EA0C0F06D152EAEF
:1008C00003353FF4FDAE1046194622E750EA4106D3
:1008D00018BF52EA43067FF4C5AE50EA41047FF4E4
:1008E0000DAF52EA43057FF4EBAE12E74FF0FF3C49
:1008F00006E000BF4FF0010C02E000BF4FF0010C1A
:100900004DF804CD4FEA410C7FEA6C5C4FEA430C92
:1009100018BF7FEA6C5C1BD001B050EA410C0CBFE1
:1009200052EA430C91EA030F02BF90EA020F002043
:10093000704710F1000F91EA030F58BF994208BFAA
:1009400090422CBFD8176FEAE37040F00100704767
:100950004FEA410C7FEA6C5C02D150EA013C07D1BE
:100960004FEA430C7FEA6C5CD6D152EA033CD3D009
:100970005DF8040B704700BF8446104662468C4603
:100980001946634600E000BF01B5FFF7B7FF002836
:1009900048BF10F1000F01BD4DF808EDFFF7F4FF5F
:1009A0000CBF012000205DF808FB00BF4DF808EDEA
:1009B000FFF7EAFF34BF012000205DF808FB00BF0D
:1009C0004DF808EDFFF7E0FF94BF012000205DF82F
:1009D00008FB00BF4DF808EDFFF7CEFF94BF0120E4
:1009E00000205DF808FB00BF4DF808EDFFF7C4FFDD
:1009F00034BF012000205DF808FB00BF4FEA410230
:100A0000B2F1E04324BFB3F5001CDCF1FE5C0DD96C
:100A100001F0004C4FEAC0024CEA5070B2F1004FB6
:100A200040EB830008BF20F00100704711F0804FB9
:100A300021D113F13872BCBF01F00040704741F47E
:100A400080114FEA5252C2F11802C2F1200C10FA82
:100A50000CF320FA02F018BF40F001004FEAC12366
:100A60004FEAD32303FA0CFC40EA0C0023FA02F30A
:100A70004FEA4303CCE77FEA625307D150EA0133E0
:100A80001EBF4FF0FE4040F44000704701F00040B0
:100A900040F0FE4040F40000704700BF80F000408E
:100AA00002E000BF81F0004142001FBF5FEA410346
:100AB00092EA030F7FEA226C7FEA236C6AD04FEA46
:100AC0001262D2EB1363C1BFD2184140484041408B
:100AD000B8BF5B42192B88BF704710F0004F40F43D
:100AE000000020F07F4018BF404211F0004F41F459
:100AF000000121F07F4118BF494292EA030F3FD025
:100B0000A2F1010241FA03FC10EB0C00C3F1200337
:100B100001FA03F100F0004302D5494260EB4000C6
:100B2000B0F5000F13D3B0F1807F06D340084FEA31
:100B3000310102F10102FE2A51D2B1F1004F40EB26
:100B4000C25008BF20F0010040EA0300704749008E
:100B500040EB000010F4000FA2F10102EDD1B0FA59
:100B600080FCACF1080CB2EB0C0200FA0CF0AABF4E
:100B700000EBC25052421843BCBFD04018437047EC
:100B800092F0000F81F4000106BF80F400000132F2
:100B9000013BB5E74FEA41037FEA226C18BF7FEAC9
:100BA000236C21D092EA030F04D092F0000F08BF0B
:100BB0000846704790EA010F1CBF0020704712F0F2
:100BC0007F4F04D1400028BF40F00040704712F131
:100BD00000723CBF00F50000704700F0004343F096
:100BE000FE4040F4000070477FEA226216BF0846CC
:100BF0007FEA23630146420206BF5FEA412390EA8F
:100C0000010F40F4800070474FF0000304E000BF84
:100C100010F0004348BF40425FEA000C08BF704735
:100C200043F0964301464FF000001CE050EA0102F9
:100C300008BF70474FF000030AE000BF50EA01020E
:100C400008BF704711F0004302D5404261EB4101FB
:100C50005FEA010C02BF84460146002043F0B64320
:100C600008BFA3F18053A3F50003BCFA8CF2083A45
:100C7000A3EBC25310DB01FA02FC634400FA02FC4E
:100C8000C2F12002BCF1004F20FA02F243EB020055
:100C900008BF20F00100704702F1200201FA02FCB7
:100CA000C2F1200250EA4C0021FA02F243EB0200AA
:100CB00008BF20EADC7070474FF0FF0C1CEAD052EE
:100CC0001EBF1CEAD15392EA0C0F93EA0C0F6FD0AF
:100CD0001A4480EA010C400218BF5FEA41211ED08D
:100CE0004FF0006343EA501043EA5111A0FB013179
:100CF0000CF00040B1F5000F3EBF490041EAD3714E
:100D00005B0040EA010062F17F02FD2A1DD8B3F1C9
:100D1000004F40EBC25008BF20F00100704790F038
:100D2000000F0CF0004C08BF49024CEA502040EA8A
:100D300051207F3AC2BFD2F1FF0340EAC250704750
:100D400040F400004FF00003013A5DDC12F1190F8E
:100D5000DCBF00F000407047C2F10002410021FA00
:100D600002F1C2F1200200FA02FC5FEA310040F118
:100D7000000053EA4C0308BF20EADC70704792F091
:100D8000000F00F0004C02BF400010F4000F013AC9
:100D9000F9D040EA0C0093F0000F01F0004C02BFC4
:100DA000490011F4000F013BF9D041EA0C018FE733
:100DB0000CEAD15392EA0C0F18BF93EA0C0F0AD039
:100DC00030F0004C18BF31F0004CD8D180EA01005F
:100DD00000F00040704790F0000F17BF90F0004FF8
:100DE000084691F0000F91F0004F14D092EA0C0FDA
:100DF00001D142020FD193EA0C0F03D14B0218BF6D
:100E0000084608D180EA010000F0004040F0FE40B2
:100E100040F40000704740F0FE4040F4400070474E
:100E20004FF0FF0C1CEAD0521EBF1CEAD15392EACD
:100E30000C0F93EA0C0F69D0A2EB030280EA010CBD
:100E400049024FEA402037D04FF0805343EA111156
:100E500043EA10130CF000408B4238BF5B0042F1B4
:100E60007D024FF4000C8B4224BF5B1A40EA0C0059
:100E7000B3EB510F24BFA3EB510340EA5C00B3EB8B
:100E8000910F24BFA3EB910340EA9C00B3EBD10F79
:100E900024BFA3EBD10340EADC001B0118BF5FEACB
:100EA0001C1CE0D1FD2A3FF650AF8B4240EBC250F4
:100EB00008BF20F0010070470CF0004C4CEA5020B5
:100EC0007F32C2BFD2F1FF0340EAC250704740F404
:100ED00000004FF00003013A37E792F0000F00F0F6
:100EE000004C02BF400010F4000F013AF9D040EA74
:100EF0000C0093F0000F01F0004C02BF490011F408
:100F0000000F013BF9D041EA0C0195E70CEAD153FF
:100F100092EA0C0F08D142027FF47DAF93EA0C0FE6
:100F20007FF470AF084676E793EA0C0F04D14B02CA
:100F30003FF44CAF08466EE730F0004C18BF31F07C
:100F4000004CCAD130F000427FF45CAF31F0004376
:100F50007FF43CAF5FE700BF4FF0FF3C06E000BF0F
:100F60004FF0010C02E000BF4FF0010C4DF804CD32
:100F70004FEA40024FEA41037FEA226C18BF7FEA42
:100F8000236C11D001B052EA530C18BF90EA010F44
:100F900058BFB2EB030088BFC81738BF6FEAE170D3
:100FA00018BF40F0010070477FEA226C02D15FEA6F
:100FB000402C05D17FEA236CE4D15FEA412CE1D0DB
:100FC0005DF8040B704700BF844608466146FFE7A2
:100FD0000FB5FFF7C9FF002848BF10F1000F0FBD84
:100FE0004DF808EDFFF7F4FF0CBF012000205DF87D
:100FF00008FB00BF4DF808EDFFF7EAFF34BF012002
:1010000000205DF808FB00BF4DF808EDFFF7E0FF9A
:1010100094BF012000205DF808FB00BF4DF808EDEB
:10102000FFF7D2FF94BF012000205DF808FB00BF4E
:101030004DF808EDFFF7C8FF34BF012000205DF830
:1010400008FB00BF4FEA40024FEA41037FEA226CEF
:1010500002D15FEA402C08D17FEA236C02D15FEA1B
:10106000412C02D14FF0000070474FF00100704753
:101070004FEA4002B2F1FE4F0FD34FF09E03B3EBA5
:1010800012620DD94FEA002343F0004310F0004FE5
:1010900023FA02F018BF404270474FF0000070473B
:1010A00012F1610F01D1420205D110F0004008BFDA
:1010B0006FF0004070474FF00000704742000ED2C2
:1010C000B2F1FE4F0BD34FF09E03B3EB126209D483
:1010D0004FEA002343F0004323FA02F070474FF039
:1010E0000000704712F1610F01D1420202D14FF0AE
:1010F000FF3070474FF00000704700BF40F0BF6006
:10110000024B40F40030D860704700BF00ED00E0B3
:10111000F0B401240178C37801F01F0294404E0915
:101120002BB90F4B203643F82640F0BC70470D4BCF
:101130004778DD688278E8430F23C0F30220C0F1CE
:101140000405C34007FA05F513402B43044A1B016D
:10115000DBB2114481F8003342F82640F0BC7047FE
:1011600000E100E000ED00E0037970B482790568E9
:1011700003F1804303F58233EC431AB3184A4179F3
:101180001668102906EA04061660566804EA060482
:1011900054601C6845EA04051D60006894686FEAA5
:1011A000000304EA03049460D46803EA0403D360F0
:1011B0000DD070BC01F1804303F582331A681043EF
:1011C000186070471A6814401C6070BC70479368C0
:1011D00070BC03439360D3681843D060704700BF6E
:1011E00000040140054B1A685B69034004D00242C9
:1011F00014BF0120002070471846704700040140CA
:10120000014B5861704700BF00040140024B034985
:10121000034A59605A607047002002402301674525
:10122000AB89EFCD324A10B4D368DC0726D4D3683B
:10123000590740D4D368DB0602D5032010BC7047A1
:101240002B4B1A6942F002021A6158611A6942F086
:1012500040021A61DA68D1072FD4DA68520745D400
:10126000DB6813F0100F0CBF0420032041F6FD7162
:101270001F4A10BC13690B40136170474FF43023B1
:10128000D468591EE4070AD4D468640711D4D2681C
:10129000D40608D4012BD3D1052010BC70470B46CF
:1012A0000029EDD1F8E70320002908BF052010BC74
:1012B00070470220F8E70220EFE74FF43022D968A8
:1012C000013ACC070CD4D96849070DD4DB6813F078
:1012D000100F14BF03200420002A08BF0520C5E713
:1012E000002AECD10520C1E70220F5E70220BDE786
:1012F00000200240304A30B4D368DD0722D4D368DE
:101300005C073CD4D368DB0602D530BC03207047B1
:10131000294A136943F0010313610180D368DB0795
:101320002FD4D3685D0745D4D36813F0100F0CBFDA
:101330000420032030BC41F6FE711F4A13690B40A4
:10134000136170474FF40053D5685C1EED070AD453
:10135000D5686D0711D4D268D20608D4012BD7D135
:10136000052030BC70472346002CEDD1F8E7032060
:10137000002C08BF052030BC70470220F8E702208F
:10138000EFE74FF40053D168013BCC070CD4D16890
:1013900049070DD4D26812F0100F14BF03200420A7
:1013A000002B08BF0520C5E7002BECD10520C1E7C5
:1013B0000220F5E70220BDE70020024030B4CC78DF
:1013C000E30648BF8B7804F00F0548BF1D430B8828
:1013D00013F0FF0F33D0482C026800F0F480282C63
:1013E00000F03381D90744BF22F00F022A43990746
:1013F00044BF22F0F00242EA0512590744BF22F42A
:10140000706242EA0522190744BF22F4704242EAA0
:101410000532D90644BF22F4702242EA05429906F9
:1014200044BF22F4700242EA0552590644BF22F03A
:10143000706242EA0562190600F104810260FF2B26
:101440004BD9282C42684AD0482C40F08E80D905D0
:1014500005D54FF4807122F00F022A4301619C05EB
:1014600006D54FF4007122F0F00242EA0512016144
:10147000590506D54FF4806122F4706242EA0522D4
:1014800001611C0506D54FF4006122F4704242EA66
:1014900005320161D90406D54FF4805122F470223F
:1014A00042EA054201619C0406D54FF4005122F442
:1014B000700242EA05520161590406D54FF4804199
:1014C00022F0706242EA056201611C0404D54FF407
:1014D000004365F31F720361426030BC7047D90559
:1014E00005D54FF4807122F00F022A4341619C051B
:1014F00006D54FF4007122F0F00242EA0512416174
:10150000590506D54FF4806122F4706242EA052243
:1015100041611C0506D54FF4006122F4704242EA95
:1015200005324161D90406D54FF4805122F470226E
:1015300042EA054241619C0406D54FF4005122F471
:10154000700242EA05524161590406D54FF48041C8
:1015500022F0706242EA056241611B04BCD54FF47F
:10156000004365F31F724361B6E7D90544BF22F01B
:101570000F022A439C0544BF22F0F00242EA051202
:10158000590544BF22F4706242EA05221C0544BF9B
:1015900022F4704242EA0532D90444BF22F4702298
:1015A00042EA05429C0444BF22F4700242EA05521A
:1015B000590444BF22F0706242EA05621C048BD5D4
:1015C00065F31F7288E7D90704D5012122F00F02C5
:1015D0002A430161990705D5022122F0F00242EA6F
:1015E00005120161590705D5042122F4706242EA0F
:1015F00005220161190705D5082122F4704242EA4B
:1016000005320161D90605D5102122F4702242EA83
:1016100005420161990605D5202122F4700242EAB3
:1016200005520161590605D5402122F0706242EA57
:101630000562016119067FF501AF802165F31F7214
:101640000161FBE665F31F72F8E6D90704D50121B5
:1016500022F00F022A434161990705D5022122F0A9
:10166000F00242EA05124161590705D5042122F42E
:10167000706242EA05224161190705D5082122F46A
:10168000704242EA05324161D90605D5102122F4A3
:10169000702242EA05424161990605D5202122F4D3
:1016A000700242EA05524161590605D5402122F0F7
:1016B000706242EA0562416119067FF5BFAE802182
:1016C00065F31F724161B9E6806880B2704700BF60
:1016D000C06880B2704700BF0161704741617047C8
:1016E0000AB9416170470161704700BF0028194B7A
:1016F00000F44012B4BFDB695B68B2F5401F30B440
:1017000084B21ED0C20213D50322C0F30345AA40FF
:1017100023EA020343F0706319B1420D12019440B1
:1017200023430C4A0028B4BFD361536030BC7047D8
:10173000420D120104FA02F223EA020343F070633D
:10174000EAE7044D23F070636A6822F070626A6011
:10175000E2E700BF0000014010B40F2401F0FC03D9
:1017600003F1804303F5803301F003019A68890097
:101770008C4022EA04029A609A6800FA01F111434F
:10178000996010BC704700BF014B1860704700BFE4
:10179000D8004242044A936919B923EA00009061D3
:1017A000704718439061704700100240044AD369A3
:1017B00019B923EA0000D06170471843D06170471F
:1017C00000100240274A0388904270B49BB212D0A6
:1017D00002F5006290420ED0B0F1804F0BD0A2F51E
:1017E0009832904207D002F58062904203D002F511
:1017F0008062904203D14A8823F0700313431A4D4C
:101800008C88A8420A8815D005F58065A84211D0B9
:10181000CE8823F440739BB205F58C353343A84240
:101820000380848502850CD170BC0B7A038601236A
:1018300083827047038084850285012370BC838284
:1018400070470A4B9842EFD003F540639842EBD0C3
:1018500003F580639842E7D003F580639842E3D0B4
:10186000EBE700BF002C01400010004000340140B5
:10187000038CF0B423F001031B041B0C0D890384BB
:10188000028C4E8822F0020284881204038B3543B6
:10189000120C23F073032A43164D1B040E881B0CF5
:1018A000A842A4B243EA06030FD005F50065A8429A
:1018B0000BD005F54065A84207D005F58065A84224
:1018C00003D005F58065A8420DD14E8922F00802AB
:1018D0008D89CF8932438E8824F4407422F004022B
:1018E0003D4332432C43C98884800383F0BC818606
:1018F00002847047002C014000234FF6FF72036002
:1019000042600372704700BF038829B923F00103C6
:101910001B041B0C0380704743F0010303807047D6
:10192000B0F8443021B9C3F30E03A0F84430704737
:1019300043F40043A0F84430704700BF83891AB9CC
:1019400023EA01018181704719438181704700BFFB
:10195000038B23F008031B041B0C194301837047FE
:10196000C94389B2018270472DE9F041082710254B
:101970004FF0030882B0144C02AE38460121FFF745
:1019800009FF26F8045D314620468DF807508DF892
:101990000680FFF713FD38460121FFF7FBFE3146B5
:1019A00020468DF806808DF80750ADF80470FFF7DB
:1019B00005FD29462046FFF791FE39462046FFF7F0
:1019C0008DFE02B0BDE8F081000C014010B5074863
:1019D000FFF77EFEC0F300140448FFF779FE03070B
:1019E00048BF44F00204204610BD00BF000C014077
:1019F00010B5054C10212046FFF770FE2046BDE8CB
:101A000010400821FFF76ABE000C014038B50F4DA9
:101A10006B783BB9044630B142060DD4230610D48E
:101A200000232B7338BD10210948FFF757FE08210A
:101A30000748FFF753FEF3E710210548FFF74CFE78
:101A4000ECE708210248FFF747FEE9E7EC13002026
:101A5000000C014038B5124C2378022B04D0054607
:101A600004F048F9637803B138BD35B16A060DD486
:101A70002B0610D40023237338BD10210948FFF72B
:101A80002DFE08210748FFF729FEF3E7102105483E
:101A9000FFF722FEECE708210248FFF71DFEE9E709
:101AA000EC130020000C014010B40D4C2346C4F18F
:101AB000006101F57C4104F580605A18127803F842
:101AC000012B8342F9D123780A2B06D04FF4806290
:101AD000FF21034810BC09F0A8B910BC704700BF33
:101AE000500F0020014B185C704700BF500F0020C2
:101AF000014B1954704700BF500F00202DE9F041F1
:101B00008446002A3BD000241E4D461E2E448F18CA
:101B100011F8010BE30943EA44030344B94203F01B
:101B2000FF0406F8010FF3D19444174805F80C4060
:101B3000FFF778FB042801D0BDE8F081114C134F6A
:101B4000C5F1006604F580687F1B06F57C462546D6
:101B50004FF6FF7335F8021BA019994204F10404F3
:101B600001D0FFF7C7FB4FF6FF732988E0199942B0
:101B700001D0FFF7BFFB4445E9D1BDE8F081144631
:101B8000004DD2E7500F002000FC0008FEFB0008CB
:101B9000F0B4D2B10024DFF83CC04E1E6644871872
:101BA00016F8015FE30943EA440300F8015B2B44A4
:101BB000B84203F0FF04F3D111441CF80100001BEC
:101BC000B0FA80F0F0BC400970471446DFF804C05A
:101BD000F3E700BF500F002008B50021502207484E
:101BE00009F023F90649002005F000FD00B108BD09
:101BF0000720BDE8084004F05DBB00BF5013002083
:101C00007C1300200149024807F0D6BD14140020BF
:101C10006C1300202DE9F04F0746DFF808824822B8
:101C200000219DB0404609F000F97B4B03CB1C8896
:101C30009A78C8F80100C8F80510A8F8094088F893
:101C40000B203B78242B00F0328200220A924FF0C6
:101C5000000BBC5C8DF84F205D46CDF824B0CDE97B
:101C600007BB002C00F0F780A4F14106F3B2192B5A
:101C700000F27F83531C0DF14F0114AA38468DF8F2
:101C80004F3002F047F8002800F07883DDF850A0CC
:101C9000504609F065FAFFF711FA5FFA80F94846F5
:101CA000FEF7B6FF01465046FEF7FCFE5B49FFF724
:101CB00003F809F0F3F9472C82B228D04D2C40F0FC
:101CC0008B80002A40F06D83B9F11E0F00F2E38192
:101CD0000123534A03FA09F3134240F0A58013F499
:101CE000607F40F0A58113F0380F00F0D481B9F186
:101CF000040F00F02983B9F1050F00F04B83B9F10F
:101D0000030F00F02F834FF480520C2397E0B9F1BA
:101D10005E0F00F2C081DFE819F0F901F901F90165
:101D2000F9017002BE01BE01BE01BE01BE012D025D
:101D3000BE01BE01BE01BE01BE01BE014C024C028D
:101D40004C0258025802BE01BE01BE01BE01BE01D6
:101D5000BE012D02BE012D02BE01BE01BE01BE01AB
:101D6000BE01BE01BE01F901BE01D301BE01BE012B
:101D70005E02BE01BE01BE01BE01BE015E02BE0129
:101D8000BE01BE01700252025202520252025202BF
:101D90005202BE01E101BE01BE01BE01BE01BE0193
:101DA000BE01BE01BE01BE01BE01BE01BE01BE013B
:101DB000BE01BE01BE01BE01BE01E501BE01BE0104
:101DC000BE01BE01BE01BE01BE01BE01BE01EA01EF
:101DD000EA012D02F301F301192E00F25C81DFE824
:101DE00016F054025A015A015A015A0139025A0195
:101DF0005A014A0216025F0269025A016E025A0132
:101E000076025A017C02820289025A015A015A0161
:101E10009602A102260200BF501300200000C84213
:101E200007000040A0130020B9F1000F00F0388136
:101E3000B9F1010F40F00C814FF400620B2345FA19
:101E400003F3DC0700F1C38215439DF84F20BC5C0F
:101E5000002C7FF409AF079B23B1089B002B08BF20
:101E6000022308931BF0200F05D0B84BD8F824208C
:101E70009A4200F3CA820A9B002B00F0AA821BF050
:101E8000010F00F0D48298F80330012B06D1D8F866
:101E90000C00AF49FEF710FFC8F80C001BF4807F60
:101EA00003D1AC4BDB68C8F8303098F80040042C04
:101EB00000F0C28298F80530002B00F00483012B5B
:101EC00040F0F882002602274FF0050ACDE90C63A6
:101ED0000B9798F80330012B00F0C282089B032B6C
:101EE00000F0B3829C4B0DF160090FCB89E80F0025
:101EF000A80510D598F80700062800F26B83954BCB
:101F00009B79834207D0494605F070FB002800F01A
:101F10007A8398F800400A2C00F0A0805C2C40F0F6
:101F2000DB82079B002B00F059838A4AD907D46CC7
:101F300040F1B483874B1899D869FEF7B3FDD8F800
:101F40003810FEF7AFFDC8F83800079B9A0740F13C
:101F50009784804B1999186AFEF7A4FDD8F83C10B5
:101F6000FEF7A0FDC8F83C00079B5B0740F14D83DE
:101F7000784B1A99586AFEF795FDD8F84010FEF78D
:101F800091FD2146FEF78EFDC8F84000079B1C0717
:101F900040F1C7846F4B1B99986AFEF783FDD8F810
:101FA0004410FEF77FFDC8F8440000230E9398F814
:101FB0000140502C00F0B284089B022B00F02A83D1
:101FC0000A9B089913F001020DBF644B2BF021030B
:101FD0009BB20BEA030311B123F470539BB2002BA5
:101FE00040F0FE82CDE915331793002A00F05B83A1
:101FF00025F04905002D40F09A8498F80030352BE3
:1020000002D0002B40F09384524A15A8117A537ADB
:10201000D2680B4352498DF85C30169200F07EFF77
:102020000446C8BB4F4B504D0FCB85E80F0033E043
:10203000B9F1080F00F08181B9F1090F00F0A38117
:10204000B9F1070F00F087814FF400520D23F6E637
:1020500088F808904FF400620B23F0E6079B002BF2
:1020600000F0BC821BF0500F00F0B682D8F82800B8
:1020700009F076F8FFF722F8C0B2062800F2AA822B
:1020800098F82030142B00F07182022B03D11BF042
:10209000800F00F06B82142420461DB0BDE8F08F45
:1020A00003234FF4006288F808300B23C7E60123AE
:1020B000002288F8013088F802200A930322C6E53E
:1020C0000721002A40F06D8145FA01F3DE0700F197
:1020D0007E8101238B401D43ADB2B6E6002ADAD1E2
:1020E0000A21F1E75023012188F80130E9E7002AAD
:1020F00040F05981A9F15A0988F804900321E3E7D7
:10210000C9F15E0988F802900521DAE7089B002BE7
:1021100040F06882B9F1260F88F8019040F0718193
:10212000A2F114039BB21E2BB5D8104921FA03F378
:10213000DB07B0D50E4B0121A3FB0223DB08763B66
:1021400088F8013002230893BEE700BF809698000C
:102150003333CB41501300207C130020DEFCFFFF03
:10216000A0130020D81300206C130020010410409D
:10217000CDCCCCCC002A40F01F81089B002B40F036
:102180003182B9F11C0F88F8009000F05281B9F14A
:102190001E0F00F04E8101230893B9F15C0F34D17A
:1021A00012B10A2A7FF477AF484488F80000002172
:1021B0008AE7A9F1110988F80590022181E7A9F1C0
:1021C000360988F8079009217BE7C9F1150988F8D5
:1021D0000390062175E7089B002B40F00382B9F1BC
:1021E000310F00F008810A2A7FF455AF012388F8E7
:1021F000063003230821089366E7B9F11C0F88F81D
:102200000090CDD0B9F11E0FCAD0002159E7149B20
:102210000424C8F814300223099A42F002020992F9
:102220004BFA03F3D80710D444EA0B0B0DE6149BCA
:10223000079AC8F840300C234BFA03F342F004022B
:10224000D80707924FF48054EED5192420461DB0CC
:10225000BDE8F08F149B0124C8F80C3000234BFA22
:1022600003F3DE07F1D400211498FEF7C3FE002823
:10227000DAD0042410E7099A149B42F00102C8F84E
:102280001030099202240123CAE7079A149B42F0F6
:102290000802C8F8443007924FF400540D23BFE7FA
:1022A000099A149B42F00402C8F8183009920824D5
:1022B0000323B5E788F8209010240423B0E714988E
:1022C000FEF7D6FE2024C8F824000523C7E7149B98
:1022D0004024C8F828300623C1E7149B8024C8F89E
:1022E0002C3007239CE7149B4FF48074C8F83030DF
:1022F0000823B4E7BC491498FEF79AFE002840F082
:10230000198388F834904FF400740923A7E7079ADB
:10231000149B42F00102C8F8383007924FF48064F1
:102320000A237DE7079A149B42F00202C8F83C306A
:1023300007924FF400640B2372E740234FF40052DE
:1023400088F809300D237AE520234FF4805288F86D
:102350000A300C2373E580234FF4005288F80930CB
:102360000D236CE510234FF4805288F80A300C23BB
:1023700065E5012420461DB0BDE8F08F022420460B
:102380001DB0BDE8F08F00234FF4005288F80930EB
:102390000D2354E500234FF4805288F80A300C23B3
:1023A0004DE5172478E60A2A7FF475AEB9F15A0F85
:1023B0003FF471AE042187E6B9F11C0F88F8009054
:1023C0003FF4EFAEB9F11E0F7FF4E7AEE9E6152456
:1023D00062E698F80230012B19D0844B5B78002B11
:1023E0007FF45CAD1BF0010F7FF44DAD7F4B1B699B
:1023F000C8F80C3052E588F806300323082108930A
:1024000062E60223012108935BE61B2444E6089B55
:10241000022B7FF443AD98F80130502B3FF43EADD2
:10242000002B3FF43BAD1BF0010F7FF437AD1624BA
:1024300032E601230893B7E61BF0400F00F0CC8092
:102440002BF040031FFA83FB34E598F80630012B8C
:102450007FF448AD079B042B3FF444AD25241BE6D5
:10246000079BD80707D5D8F838006149FEF724FC48
:10247000079BC8F83800990707D5D8F83C005C4995
:10248000FEF71AFC079BC8F83C005A0707D5D8F896
:1024900040005749FEF710FC079BC8F840001B0797
:1024A0007FF51CADD8F844005149FEF705FCC8F88B
:1024B000440013E5012702260023CDE90B764FF0F7
:1024C000060A0D9305E501261F46CDE90B360223CA
:1024D0004FF0030A0D93FCE4089B032B33D0079ABB
:1024E000002A30D0414998F80430C96C0E91002B75
:1024F00040F0E481D00700F195823C4BDB69C8F8DD
:102500003830079B990700F1D082384B1B6AC8F816
:102510003C30079B5A0700F15F82344B5B6AC8F876
:102520004030079B1B0740F16C82352C00F0AE80D9
:102530002E4B1B99986CFEF7B7FAD8F84410FEF7AB
:10254000B3FAC8F844001E2C00F0A081352C00F02E
:102550009D801C2C50D098F80140502C40F09B805E
:10256000079B002B40F0DA810E9329E5002800F04C
:1025700054820138C3B218460E931E4905F036F84E
:10258000002840D098F82030184A142BD46C079BB0
:1025900000F0D183D90704D5D8F83830C8F8103006
:1025A000079B9A0704D5D8F83C30C8F81430079B2D
:1025B0005C0704D5D8F84030C8F81830079B1807D6
:1025C00003D5D8F84430C8F81C302BF050031FFA5C
:1025D00083FBECE41D245FE51C245DE51A245BE528
:1025E000242459E5182457E500007F4350130020A8
:1025F0003333CB41B0130020AB49062004F0F6FF83
:10260000002840F04A81072446E5A84B5B6CC8F8D7
:102610004030BBE4ACB10021D8F80C00FEF7E0FC80
:1026200000287FF404AF8C2C00F0708300F26483E8
:10263000022C00F0BB82032C00F0BC82012C7FF442
:10264000BFAC079B002B089B08BF00230893B7E48F
:10265000352C00F0F681954BD8F83810D869FEF784
:1026600023FA079BC8F838009B0700F134818F4B91
:102670001B6AC8F83C30079B580740F1EA81352CAB
:1026800040F03581079B1A0740F1BB8198F8014063
:10269000012C00F2408100230E938DE4834BDB6B11
:1026A000C8F8383051E4824B804A93F85850547A35
:1026B00015F0020514D098F80130013B022B03D924
:1026C0000A9B43F040030A93079B1BB1089B022B14
:1026D00000F042820A9B102C03F0400500F0FA81C2
:1026E0007249D8F8242098F802308A614B7013B1EF
:1026F00008238DF85C306D4AD8F80C30D768D8F8CC
:1027000030603846314613611593FEF769FC0028A6
:1027100000F0A4800A9B9B0600F1A0803E4605B90C
:10272000169698F80A0098F83430604DA0422B7540
:1027300005D0169905F024FB98F80A406C725B4DA1
:102740009DF85C2098F809002B7A144383428DF899
:102750005C4009D0FFF77EF998F80900002840F0A6
:1027600055819DF85C40287298F800300443042B92
:102770008DF85C4000F0788198F803304B4998F868
:1027800005208B70089B0A71032B00F0F280474DE7
:1027900098F80740AB79A34208D099E80F00AC71D4
:1027A00005F12C0484E80F0006F0FCFF98F80030D7
:1027B00098F804203D49262BCA7000F0718140F240
:1027C000BC805C2B00F0C081662B00F0B281282B0E
:1027D00003D13849072004F021FE98F80130334A2C
:1027E000502B137003D0089A022A00F0818198F8C8
:1027F00008402E4BDC71002C3FF44EAC03F07AFA0B
:102800002A4BDB79032B00F0AE810122002446F233
:1028100064406421254D284B2A801A782C71022AA5
:10282000EC70AC712C811881997210D005F12C01DB
:10283000204604F0DBFE00283FF4E5AE06F0B2FFD0
:102840002046002105F00EFA2046FFF7DFF80820A9
:1028500003F05EFD0024154BDC711DE46CB10A9B96
:102860001F060AD4002D00F0A1822046002105F0A9
:1028700087FA0E4BD8F830605C7A0C4BDE604EE77E
:102880000A4B1B6CC8F83C30FFF76EBB06490720AB
:1028900004F0ACFE00283FF4B6AE079B002B7DD1C0
:1028A0000E930893FFF78CBBB01300205013002049
:1028B000A81500206C130020EC130020D1073FF571
:1028C000C7AEB24B9207DB69C8F838307FF5CFAEA0
:1028D000352C00F0BA80AD4BD8F83C10186AFEF7E2
:1028E000E3F8079BC8F83C00590740F1B280A74BBA
:1028F000D8F84010586AFEF7D7F8079BC8F8400090
:102900001B077ED5A14BD8F84410986AFEF7CCF887
:10291000C8F8440017E61E24FFF7BEBB1F24FFF7CC
:10292000BBBB9A4B9B6CC8F84430FFF73EBB1024EE
:10293000FFF7B2BB2624FFF7AFBB1C2B00F099803A
:102940001E2B00F096800A2B7FF447AF0E9D904C13
:102950002846214604F062FD8C4B9B79AB427FF404
:102960003CAF94E80F008B4C84E80F0006F01AFF90
:1029700033E798F806304B71002B00F0A680D8F8AA
:102980004040824B2146D86CFEF72AFB00287FF49A
:10299000FEAE7E4BDC6406F005FFF8E6DC0704D4EF
:1029A0007A4BDB69C8F81030079B980704D4774B43
:1029B0001B6AC8F81430079B590704D4734B5B6A31
:1029C000C8F81830079B1A073FF5EFAA6F4B9B6AB0
:1029D000C8F81C30FFF7E9BA352C3FF4A3AD6B4BB8
:1029E0001A99586CFEF760F8D8F84010FEF75CF8BA
:1029F0000E99FEF759F8079BC8F8400018073FF5F5
:102A000097AD624B9B6AC8F844309CE55F4A9DF8DD
:102A10005C40137A18431072A6E698F807300E93BC
:102A20001846AAE5352C3FF46CAD584B1899D86B75
:102A3000FEF73AF8D8F83810FEF736F8C8F838003C
:102A40005FE5079B99077FF512AE079B5B073FF594
:102A500019AE4E4B5B6AC8F84030079B1A07D0D5B9
:102A6000352C7FF44FAF11E6D8F8280001F056F866
:102A700082E69DF85C3043F001038DF85C30089BE2
:102A80001BB115A9444800F01BFE414D434C28469C
:102A900015A900F015FE95E80F0084E80F009CE6EC
:102AA0003E49062004F0BAFC97E6352C3FF432ADDF
:102AB000364B1999186CFDF7F7FFD8F83C10FDF765
:102AC000F3FF079BC8F83C0024E500231C46C8F828
:102AD000403056E72D4B1B78013B022B4ED8002D82
:102AE0003FF4FEAD0A9B402543F020030A93F7E52F
:102AF000012B00F08E81002B00F06781023B012B3F
:102B000040F270819DF85C30234D43F004030A9A33
:102B100015A928468DF85C3001F038F8002800F03F
:102B20004E8101287FF463AE1D491C4806F044FE27
:102B30005DE600231B4AA2F13C01CB63C2E90133ED
:102B4000D36006F02FFE48E6164C134B0FCB84E8FB
:102B50000F0006F027FE40E60A9B03F0400543F015
:102B600080030A93BCE5104B1B78022B3FF472AE36
:102B7000082006F07FFE02F0CFFE6BE6002D7FF40A
:102B8000AFAD0A9B43F020030A93A9E55013002040
:102B9000B01300207C130020D81300206C130020F9
:102BA000141400208C130020EC1300200A9B43F027
:102BB00004030A93079B002B3FF410AD13EA0A0F9E
:102BC00000F03181994C08EB870204EB8703D96947
:102BD000906BFDF767FF04EB860308EB86020F900E
:102BE000D969906BFDF75EFF1BF08004109000F038
:102BF00025812BF0800310228D498E481FFA83FB1C
:102C000008F004F9002800F0938098F80330D8F811
:102C10002C00012B04D18849FEF74EF8C8F82C008F
:102C2000D8F82C404FF081412046FEF745F8214668
:102C3000FEF742F80F9B044619461846FEF73CF88B
:102C400001462046FDF72EFFDDF840A00446514620
:102C50005046FEF731F801462046FDF723FF0021DC
:102C60000446FEF7C7F9002840F0DA80204608F055
:102C70008BFA514604460F9801F018F904F100440C
:102C800001462046FEF7CCF898F80130D8F82CA081
:102C9000032B04464FF0000108BF00F100445046EA
:102CA000FEF7A8F928B10AF1004304F10044C8F87E
:102CB0002C3010992046FDF7FFFFDDF83CA00146BF
:102CC0005046FDF7EFFE4FF07C51FDF7F5FF023760
:102CD00008EB8707B86051462046FDF7EDFF1099D5
:102CE000FDF7E2FE4FF07C51FDF7E6FF023608EB00
:102CF0008606B060FFF764B98E2C07D002D38F2C04
:102D00007FF45EA90A9B43F010030A9304F1720357
:102D1000DBB2012B40F2D880079B002B3FF45EAC66
:102D200010224349434808F071F800287FF448A96D
:102D30002124FFF7B1B9D90709D5D16BD069FDF7C7
:102D4000B1FED8F83810FDF7ADFEC8F81000079BAB
:102D50009A070AD5354B196C186AFDF7A3FED8F807
:102D60003C10FDF79FFEC8F81400079B5B070DD5CC
:102D70002E4B596C586AFDF795FED8F84010FDF7B8
:102D800091FE2146FDF78EFEC8F81800079B180734
:102D90007FF51BAC254B996C986AFDF783FED8F83C
:102DA0004410FDF77FFEC8F81C000EE431462046B3
:102DB00004F0E6FF1D4BD8F830605C7A5DE51D4CF1
:102DC00095E80F0084E80F0011E59DF85C30184D80
:102DD00043F0010315A928468DF85C30154C00F02E
:102DE0006FFCEDE70A9B124DC3F3800304930D9B28
:102DF000104C03930C9BD8F82C6002930B9B15A9E5
:102E000001932246A5F128032846009600F08CFC89
:102E1000D6E7074D15A9284600F052FC054CCFE730
:102E20002224FFF739B92024FFF736B950130020C8
:102E3000D81300206C1300203333CB41099B13EAD5
:102E40000A0F60D098F803302BF00E02012B1FFA06
:102E500082FB3ED0B41C08EB8404A1681098FDF7F7
:102E600021FE0646023708EB8707B9680F98FDF781
:102E700019FE314601F01AF8A1680646B86801F05B
:102E800015F8074630463946C8F82C70FDF70AFE9B
:102E900020F0004420461D49FEF7CAF800283FF400
:102EA0008FA84FF07C512046FEF7C2F800287FF42F
:102EB0003FAF17493846FDF7FFFE2146FEF79AF867
:102EC00000283FF47DA833E70A9B43F008030A93E8
:102ED00022E7104B11962E4625461C46DFF838A0F7
:102EE000099B2B4113F0010F05F1010504D0206867
:102EF0005146FDF7E1FE2060042D04F10404EFD1FA
:102F00003546119EA6E72324FFF7C6B80AD7A33B90
:102F10006F12833AB01300203333CB4170B50546AE
:102F2000037AC86843F00403124A28602B7292F8AF
:102F3000583001F138049B0603D5204606F060FCAA
:102F4000A8B90D4E2046294600F0BAFB347814B1DA
:102F50000024204670BD01F09DF90028F8D0202300
:102F6000337005F081FB04F0C5FF204670BD0F24CF
:102F7000204670BDA8150020EC13002030B50121BB
:102F800085B009204FF41C44FEF704FC48230322BB
:102F900004A9214D21F8104D20488DF803308DF8FB
:102FA0000220FEF70BFA95F858301B0706D44FF4B1
:102FB00080721B4BC3F8842005B030BD642000F044
:102FC00065FF0A210120FEF7C7FB0B210120FEF758
:102FD000C3FB0C210120FEF7BFFB0F210120FEF7F0
:102FE000BBFB95F85830002213F0400F14BF0821A6
:102FF0000C21012302A88DF80D108DF80C208DF8FE
:103000000E300294FEF7B0F8064B04A840F80C3DD1
:10301000FEF77EF805B030BDA8150020000C014079
:1030200000E100E0280202014FF48072014BC3F876
:103030008420704700E100E008B51248FEF744FB29
:103040000346114A92F8582052065CBF80F41C4394
:103050009BB2ABB10D4A10885188034214BF0120C6
:1030600000200B429188D28818BF40F002000B422A
:1030700018BF40F00400134201D040F0080008BD22
:10308000184608BD000C0140A8150020C8C2000861
:1030900008B54FF48060FEF7A5F888BB4FF40060D8
:1030A000FEF7A0F838BB4FF48050FEF79BF8E8B964
:1030B0004FF40040FEF796F898B94FF48071134A28
:1030C000134BC2F884111B78012B02D0114B1B78D3
:1030D00003B108BD00F0ECFDBDE80840012006F09A
:1030E000DDBB4FF40040FEF78BF8E6E74FF480506D
:1030F000FEF786F8DCE74FF40060FEF781F8D2E7D0
:103100004FF48060FEF77CF8C8E700BF00E100E004
:10311000EC130020241400202DE9F04FDFF850823A
:1031200093B098F8013013B113B0BDE8F08F0546A5
:1031300006248949049008684968CDE90C3309AA36
:103140008DF8344015F001040B9303C22B4640F078
:10315000F4804FF00009814EC3F3400307934BB155
:103160007F49706BFDF7A8FD49460546FDF742FF14
:1031700000B9A946049BC3F3800306934BB1784979
:10318000B06BFDF799FD49460546FDF733FF00B9E1
:10319000A946049BC3F3C00305934BB17049F06B80
:1031A000FDF78AFD49460546FDF724FF00B9A9460B
:1031B000042301250193336EDFF8ACB10293694F0C
:1031C000E3B2DFF8B0A1039367490EA806F0F4FA62
:1031D000039B002B00F05C810021B6F85A20CBF84D
:1031E0000010D40740F16B81002D40F06B81CDF8C9
:1031F000389002220120BDF82440079B83B10020B3
:10320000B6F85A10CBF80400880740F15181002D20
:1032100040F05181CDF83C901046BDF826100C438B
:10322000069B8BB10021B6F85A200130CBF808106C
:103230005107C0B240F14A81002D40F04A81CDF8DB
:103240004090BDF828201443059B8BB10021B6F8AF
:103250005A2001301207C0B2CBF80C1040F1218186
:10326000002D40F02181CDF84490BDF82A301C4358
:10327000FDF7CAFC07F088FFA8F80640014602984F
:10328000FDF71AFD0BA90B900EA801F0F3F804232B
:1032900088F8043005F0E8F904F02CFEDFF8D89047
:1032A000002D6BD105F0E0F93B7813F0340F40F0BE
:1032B000AE802207F4D105F04FF8B6F8640000F0B4
:1032C000E5FD85F00104002D40F0E6802749B06E51
:1032D000FDF7F2FC8146F36D0293019B25465A1ED1
:1032E00012F0FF0301937FF46FAF1C46049F47FA6F
:1032F00004F3A50013F0010F06EB050214D0B6F895
:103300005A30B06E2341DB0700F1004C56F8249090
:1033100040F1E380116BFDF7C7FB4946FDF7CCFC9C
:1033200007F0BCFE4BF805000134042CDFD100236C
:1033300088F8043013B0BDE8F08F084E0849306BB0
:10334000FDF7BAFC00218146FDF754FE08B14FF0AD
:1033500000092B4600E700BFD0C20008A8150020D6
:103360000000C0BF01140020141400200000A04081
:10337000EC130020C8C20008000C01404846FEF7CC
:10338000A3F996F858305B065CBF80F41C4080B20D
:10339000002833D0BAF80030BAF80220184214BF1F
:1033A000012300231042BAF8042018BF43F002039F
:1033B0001042BAF8062018BF43F004031042BDF8CB
:1033C000242018BF43F00803144202D0D90748BF95
:1033D0009443BDF82620144202D0980748BF944376
:1033E000BDF82820144202D0590748BF9443BDF8C5
:1033F0002A20144202D0DB0818BF9443A8F80640E4
:1034000005F032F93B7813F0340F3FF452AF3C78BB
:10341000E4B2E20668D4A3060AD475B1610767D4A2
:10342000384B1B78002B67D1042006F02DFA42E7B9
:10343000072006F033FA002DF0D13348FEF744F9A7
:1034400096F858305C065CBF80F41C4080B20028BF
:10345000E6D0BAF80030BAF80220184214BF0123AF
:1034600000231042BAF8042018BF43F002031042B0
:10347000BAF8062018BF43F004031042049A18BF9C
:1034800043F008031A42CBD0082006F007FAC7E73A
:103490001C4618460122B0E6336ED6F868900293B7
:1034A0001BE7002D7FF4DFAE09F100431193DCE64A
:1034B000002D7FF4AFAE09F100410F91ACE6002D75
:1034C0007FF495AE09F100420E9292E6002D7FF452
:1034D000B6AE09F100421092B3E649466046FDF7E8
:1034E000EBFB07F0DBFD1DE7062006F0D7F992E7BE
:1034F000092006F0D3F993E700F0DAFB02F00CFAAA
:1035000012E600BF24140020000C014010B506F0A4
:1035100077F9C8B101230D4C2078E370082808D052
:1035200000F0C6FB022006F0B9F9BDE8104002F039
:10353000F3B906F09FF902E02378002BF0D002F0F7
:10354000EBF96378002BF7D010BD00BFEC1300201F
:103550002DE9F04F012183B01020FEF71BF94FF445
:1035600000500222102302A921F8040D00F180402E
:1035700000F570408DF806208DF80730FDF71EFF2E
:1035800007F012F907F01CF906F0C2FEFDF73EFE47
:10359000FEF78AFA2A4A46F2644B13684FF0640A2F
:1035A00023F00403136003F0FFFD04F0A1F904F01D
:1035B00093FF05F0A1FE00200446224B224D93F814
:1035C0005810C5E90000C5E90200204F204EDFF881
:1035D0009090DFF890801F4DC1F300111E4B89F8C9
:1035E000004088F800401C701C4BBC603C607C6054
:1035F000C7E90344A7F808B087F80AA01C7039701F
:10360000C6E90044C6E902442C7003F0E5FEFEF76B
:10361000E3FA04F01DFAFEF7A7F9FFF7AFFC01F09B
:1036200005FC00F0F3FD04F097FE01F0F5F8FEF75D
:10363000E9FA02F0CBFE02F081FD3978CEE700BF57
:1036400010E000E0A815002014140020EC13002066
:10365000041400200014002024140020E81300208B
:10366000021400200114002042F22831094B30B42A
:10367000002501241A4601FB00F058609D601C6083
:10368000136803F00113012BFAD030BC0023136040
:103690009360704710E000E010B5074C4FF4005104
:1036A00022780648FEF71CF8237813F1FF3318BF81
:1036B0000123237010BD00BF000000200010014056
:1036C000F8B5174D174C95F858200E4691062378FB
:1036D000074604D5202B0AD0FFF718FF2378022BCA
:1036E00005D1F8BD00F004FE38B101F00DFC02F088
:1036F00013F96378002BF5D0F3E73846314600F034
:10370000B9FE0028EDD195F858309A07E9D5337AFB
:10371000DB06E6D571681020BDE8F84004F030BB48
:10372000A8150020EC1300202DE9F04F1F468FB0A4
:103730009DF86440934653F82450A3000B900791E2
:10374000284652F824101A44FB1801920893FDF7FA
:10375000ABF99DF86860824657F82680B300FA18E6
:103760005BF826105B440390404609920293FDF7F4
:103770009BF90B9F81465146049057F82400FDF7B2
:1037800091F94946044657F82600FDF78BF905F1F3
:103790000045064621462846FDF78EFA08F1004806
:1037A000074631464046FDF787FA01463846FDF7A1
:1037B0007BF9314607462846FDF77EFA2146064644
:1037C0004046FDF779FA01463046FDF76BF9394678
:1037D0009DF87060DDF860909DF86CA007F0D2FC59
:1037E0000446002E00F05E81FCF716FEA8A3D3E984
:1037F000002306460F46FDF7EDF8002840F07481DF
:10380000A54B4946DE6C4846FDF74EF93146FDF7BB
:1038100049F93146FDF750FA07F0B6FC4FF07C51FC
:1038200006462046FDF748FA4946FDF745FA314677
:1038300020F00040FDF7F4FA07F0F0FBFDF73EFC46
:1038400083B20093002B00F05A811846079B1E7A22
:10385000FDF7DEF93107074600F13B813946204686
:10386000FDF7DEFA0B9B06460C905BF82A1053F826
:103870002A00FDF717F93946FDF7D2FA31460590CF
:103880003046FDF719FA01464FF08040FDF70AF97E
:10389000824904463046FDF70FFA4FF08141064653
:1038A0002046FDF701F901463046FDF705FA4FF0D5
:1038B0007C5106902046FDF7FFF9009B0BEB8A0731
:1038C000012B0D9000F01B8101264FF00009744C74
:1038D000CDF828B0B9F10B0F00F2A5802946069863
:1038E000FDF7EAF9DDF834B0824641465846FDF767
:1038F000E3F901465046FDF7D7F829468246584677
:10390000FDF7DAF9414605460698FDF7D5F9014677
:103910002846FDF7C7F8D046054609F101095FFAC8
:1039200089F903992846FDF7BFF8019B04991860AF
:103930004046FDF7B9F8029B059918603868FDF715
:10394000B3F8554B386093F858309A0605D523786C
:10395000202B0BD00A98FFF7D9FD2378022B05D135
:1039600021E000F0C5FC48B101F0CEFA01F0D4FF2F
:103970006378002BF5D00FB0BDE8F08FDDF81CA008
:103980000A98514600F076FD68B9434B93F85830D9
:103990009B0708D59AF80830D80604D5079B102055
:1039A000596804F0EDF96378002BE4D10136009AF0
:1039B000B3B293428ED3384B93F8582023789106B4
:1039C00005D5202B0FD00B98FFF7A0FD2378022BF5
:1039D000D1D001F0A1FF6378002BCCD100F088FC9E
:1039E00050B101F091FA01F097FF6378002BC2D13A
:1039F00000F07EFC0028F4D1079C0B98214600F0D3
:103A000039FD0028B7D1244B93F858309A07B2D526
:103A1000237ADB06AFD51020079B59680FB0BDE8AD
:103A2000F04F04F0ADB93046FDF7F2F80C99FDF710
:103A300043F9054607F0BEFA8146284607F05AFBCF
:103A4000089B82461B68494603F1004B099B584678
:103A5000D3F80080FDF730F9514605464046FDF7A2
:103A60002BF901462846FDF71FF8514605465846F2
:103A7000FDF722F9494682464046FDF71DF9014609
:103A80005046FDF70FF84FF00009804649E700BFA8
:103A90008DEDB5A0F7C6A0BEA8150020ABAA2A3EA2
:103AA000EC130020FCF7B8FC17A3D3E9002306466B
:103AB0000F46FCF785FF00283FF4A2AE14A3D3E91C
:103AC000002330463946FCF749FBFCF797FF0446D4
:103AD00096E6079A01461068FDF7EEF8079B26F078
:103AE000080618601E72B9E609A3D3E90023304620
:103AF0003946FCF731FBFCF781FF044680E6064CB3
:103B000059E700BFAFF300808DEDB5A0F7C6A03E2A
:103B1000182D4454FB211940EC130020074B1B784F
:103B2000022B09D010B5044602F0E4F82046BDE8A7
:103B30001040002100F072B9704700BFEC13002064
:103B400008B5FFF771FA0420FFF7E6FA0320FFF744
:103B5000E3FA0820FFF7E0FA01F0DEFE094B5B789C
:103B600003B108BDFEF74EF800F056FE4FF41C40BE
:103B7000FDF746FB4FF48072034BC3F884215A6073
:103B800008BD00BFEC13002000E100E02DE9F0418A
:103B9000424C2378022B32D015460F46064602F0DF
:103BA000A9F894F80180B8F1000F25D1C5F3C00041
:103BB00084F8058001F060F901F072F968BBDFF864
:103BC000EC80237898F85820900605D5202B1ED03D
:103BD0003046FFF79BFC2378022B18D10123304E8F
:103BE0000220337005F046FE01E02378F3B101F0C6
:103BF00093FE6378002BF8D00220BDE8F08100200E
:103C0000BDE8F08100F074FB48B301F07DF901F0EC
:103C100083FE6378002BF5D0E0E7042005F03EFE3C
:103C200001F07AFE404601F027F9E5E73378012BF1
:103C300027D00123637100231846337001F01CF96B
:103C400001F06AFE04F088FB00F0E0FA00F0E4FD09
:103C500002F090FE6079003018BF0120CDE73046B9
:103C6000394600F007FC0028B8D198F85830990779
:103C7000B4D53B7ADA06B1D57968102004F080F823
:103C8000ACE7EB0605D5074B074D0FCB85E80F00DA
:103C9000D1E7052005F002FECDE700BFEC130020C0
:103CA000021400201414002004140020A815002081
:103CB00008B5154B1B78DB0600D508BD102005F0B4
:103CC000D9FD03F06DFFFDF793FE104A137813F052
:103CD0002C0F08D0042B0BD10D4B1B787BB1BDE80A
:103CE000084004F047B9127912F0060FF2D1E4E768
:103CF000032005F0D3FDBDE8084004F03BB90620E1
:103D000005F0CCFDEBE700BF01140020EC13002010
:103D1000241400202DE9F04F0C7883B0035D044497
:103D20002D2B69D02B2B1DD04FF00008651C0026D1
:103D300034463746B4460CE00134E4B2082C16D8B9
:103D40000EB1013F7FB20CEB8C0C03EB4C0C15F861
:103D5000013B303BDBB2092BEED9FE2B0CD15EB917
:103D60000126F4E74FF000086378A51CDFE7002E7A
:103D7000EDD101377FB2EAE7002C39D082466046A8
:103D800001919146FCF740FF00218346FDF728F999
:103D900008BB791C12DA3E461D4C58462146FCF7FA
:103DA0008BFFB31C5EB2721C8346F6DBFFB2C7F119
:103DB000FE0303F0FE031F4402377FB27B1C20D0BA
:103DC0004FB1144C58462146FCF776FF013F7FB2B5
:103DD0008346002FF6D1B8F1000F01D00BF1004B54
:103DE0000124A5EB0A05019B013DC9F800B01D7037
:103DF000204603B0BDE8F08FA51C63784FF00108A2
:103E000095E758460449FCF757FF8346E3E700BFB0
:103E10000AD7233C00002041CDCCCC3D70B50E46E6
:103E20001849FCF749FF07F085F8FDF747F980B21C
:103E3000B0B1154D6B789BB9441EA4B28EB14FF64C
:103E4000FF7608E0013C3220A4B2FFF70DFCB4423B
:103E500006D06B7823B901F061F8AB789B07F1D5F8
:103E600070BD4FF6FF7602E06B78002BF8D1013C75
:103E700001F052FDA4B23220FFF7F6FBB442F3D1B9
:103E800070BD00BF0000A041EC13002060B138B548
:103E90004FF6FF75441EA4B2013C0120A4B2FFF707
:103EA000E3FBAC42F8D138BD704700BF38B50D46D2
:103EB0000146FCF701FF294604462846FCF7FCFEB4
:103EC00001462046FCF7F0FDBDE8384007F05CB93C
:103ED00070B50568044600212846FDF781F80028E2
:103EE00054D129462846FCF7E7FE0021FCF7DCFD0B
:103EF0000546666800213046FDF772F840B9314644
:103F00003046FCF7D9FE01462846FCF7CDFD0546B4
:103F1000A66800213046FDF763F840B931463046C7
:103F2000FCF7CAFE01462846FCF7BEFD0546E668DA
:103F300000213046FDF754F840B931463046FCF7D1
:103F4000BBFE01462846FCF7AFFD0546284607F0B4
:103F50001BF9064601464FF07E50FCF761FF05460F
:103F600001462068FCF7A8FE294620606068FCF73F
:103F7000A3FE29466060A068FCF79EFE2946A0606B
:103F8000E068FCF799FEE060304670BD0025B0E7C0
:103F9000F8B50C680D46064600212046FDF720F8CE
:103FA000002840D121463068FCF73AFF20F0004459
:103FB00020462149FDF73CF8002834D16F680021E4
:103FC0003846FDF70DF850B939467068FCF728FF00
:103FD00020F0004739462046FDF70CF850B3AF6893
:103FE00000213846FCF7FCFF50B93946B068FCF7B1
:103FF00017FF20F0004739462046FCF7FBFFB8B119
:10400000ED6800212846FCF7EBFF50B92946F0681F
:10401000FCF706FF20F0004528462146FDF708F88A
:1040200018B12046F8BD044CC8E72C462046F8BD20
:104030003C46E5E73C46D2E7FFFF7F7F2DE9F04FA6
:104040006E4B83B01B780193002B00F0C0805C1E88
:10405000E4B26B4B93F80080A04500F0B580E60019
:10406000684FA6EB040907EBC909D9F82010D9F865
:104070001C500846FCF718FDD9F82410FCF71CFE6C
:10408000814601462846FCF7B5FF00B1A946331B1F
:1040900007EBC303C3F81890002C00F09A80651E4C
:1040A000EDB2DFF86491A84599F8003000F09980EE
:1040B000361B07EBC60625E0013DEDB2AB422BD027
:1040C000C4EBC40407EBC404D4F81CB0A06959467F
:1040D000FCF786FF88B9216A0846FCF7E5FC616AAF
:1040E000FCF7EAFDB169FCF7DFFC064601465846DD
:1040F000FCF79EFF00287ED0A661454512D05646AB
:1041000099F80030C5EBC50A07EBCA0A2C46002D0A
:10411000D2D12325AB42D3D104F090FA384B93F897
:104120000080CDE7354B1B78019300236C1CE4B273
:10413000242CC5EBC50208BF002407EBC20B00937B
:1041400035E0DBF81890D6F8188048464146FCF771
:1041500051FFB8B1DBF820100846FCF7A5FCDBF8EE
:104160002410FCF7A9FD4946FCF79EFC8146014658
:104170004046FCF75DFF28B10123C8462546009361
:10418000C6F81890AAEB040307EBC303D8694146AD
:10419000FCF726FF631C002818BF2546DCB2009BF5
:1041A00018BF0123242C08BF0024B3460093019BB1
:1041B0004FEAC40AAAEB04069C4207EBC606C0D12C
:1041C000009B0BB10E4B1D7003B0BDE8F08F232494
:1041D0003FE72325DFF83090A84599F800307FF4B9
:1041E00067AF9D42A1D104F029FA044B1B780193DB
:1041F000034B1D7899E7C4F818B07EE71C0D00202A
:104200001D0D00203C0500201E0D002038B5242285
:104210000021074806F009FE002301210548064A4F
:10422000064D074C037011702B70237038BD00BF12
:10423000200D00201D0D00201F0D00201E0D002050
:104240001C0D00200A490B4B0A781B7893420DD0B5
:10425000531CDBB2242B08BF002310B406480B709C
:104260000478944208BF037010BC7047704700BFC9
:104270001E0D00201C0D00201D0D0020034B0448C6
:104280001B78C3EBC30300EBC30070471C0D002079
:104290003C050020064B074A1B7812789A421DBF46
:1042A0000548C3EBC30300EBC3000020704700BF09
:1042B0001E0D00201C0D00203C050020094B0A4A61
:1042C0001B7812780133DBB2242B08BF00239A42FB
:1042D00006D0064AC3EBC30302EBC30398697047D9
:1042E000002070471E0D00201C0D00203C05002002
:1042F000044A054B10781B78C01AB0FA80F04009C8
:10430000704700BF1E0D00201F0D002038B5837DB3
:10431000046BDA0715D5174B587AFCF779FC164968
:10432000FCF7CAFC01462046FCF7C6FC04464FF0E9
:104330007E512046FCF77CFE08B94FF07E542046A3
:1043400038BD5B0705460BD40A4B187AFCF760FCB6
:104350000949FCF7B1FC01462046FCF7ADFC0446D8
:10436000ED6A21462846FCF745FE0028DFD02C46A2
:10437000DDE700BFEC1300200AD7233C2DE9F04F06
:10438000354A364B364992F800B01A7A5B7A83B0D8
:104390000C7801920093334FDFF8D4904FF07E5A9F
:1043A00028E00098FCF734FC2F49FCF785FC4146D7
:1043B000FCF782FC064651463046FCF739FE00B950
:1043C000564631463846D5F82880FCF713FE0028BB
:1043D00037D039463846FCF76FFC07463946404629
:1043E000FCF708FE50BBEF610134E4B2242C08BF97
:1043F00000243746A3452AD0E600351B09EBC50546
:10440000AB7DD5F83080DA07CBD45B070AD40198AE
:10441000FCF7FEFB1449FCF74FFC01464046FCF755
:104420004BFC8046361B09EBC606F66A4146304611
:10443000FCF7E0FD0028BED14646BCE7C5F81C806D
:10444000D2E731463046FCF737FC0746C6E7074B54
:104450001F6203B0BDE8F08F1C0D0020EC1300209C
:104460001E0D0020FFFF7F7F0AD7233C200D002078
:104470003C0500202DE9F04F9E4B95B01B780D4672
:10448000DA00A2EB030900939B4B834603EBC903BD
:104490001C464FF000090391019218463822002172
:1044A000029306F0C2FC2B7A6A68A3759B074CBF87
:1044B000924B934B62630DF120080FCB88E80F00FD
:1044C000DDE900239D1A8C4B029F8E4EABF1040B4D
:1044D00003EBC5050DF1300A5BF8041F3068FCF7EB
:1044E000EBFB06F0DBFD58F8293004AA42F829005E
:1044F000C01A80EAE074A4EBE07447F8044B2B691F
:104500009C4238BF1C462C61FCF782FB56F8041B0A
:10451000FCF786FC00214AF82900FCF76BFD28B166
:10452000794BAA8A33F819301343AB8209F1010998
:10453000B9F1040FD0D11CB9204615B0BDE8F08FF9
:104540005046FFF7C5FCDDE900239C1A6A4B514633
:1045500003EBC40460626D48FFF71AFD5146206208
:104560006B48FFF715FDA57DE062EF0765D5206379
:10457000684B604A1B7812789A4201D0AC0769D523
:10458000DDE900239B1A00225B4901EBC3039A611A
:104590009A62DDE900239B1A574A02EBC3039A7D16
:1045A000900753D4D1071C6B40F1C0805A4B587A06
:1045B000FCF72EFB5949FCF77FFB01462046FCF730
:1045C0007BFB04464FF07E512046FCF731FD08B9D5
:1045D0004FF07E544A4D029B2F6A214638469E6A10
:1045E000FCF708FD002800F0C18039463846FCF78A
:1045F00063FB074631463846FCF71AFD029B00284C
:1046000040F0B280DF61464A464E117839484B1C73
:10461000DBB2242B08BF00232C62017013709AE8D0
:104620000F0086E80F0004AB0FCB85E80F00FFF703
:1046300005FD012015B0BDE8F08F039B2E0719681A
:10464000216395D5606AFCF737FB90E7012015B030
:10465000BDE8F08F2A4C0C9E276930463946FCF79E
:104660002BFB01460020FCF71DFA39460546304673
:10467000FCF718FA67690D9E394610903046FCF732
:104680001BFB01462846FCF70DFA39460546304625
:10469000FCF708FAA7690E9E119039463046FCF7E0
:1046A0000BFB01462846FCF7FDF939460546304626
:1046B000FCF7F8F9E6690F9C129021463046FCF7AA
:1046C000FBFA01462846FCF7EDF93146054620463F
:1046D000FCF7E8F9144913902846FCF7A9FC0028D8
:1046E0004AD0DDE900239B1A0022034901EBC303F2
:1046F0009A624EE71C0D00203C0500201414002097
:10470000200D0020A8150020C0C20008C8150020F8
:10471000B81500201E0D0020EC1300200AD7233C02
:104720001F0D0020300D0020EFFF7F3F53070BD4FB
:10473000324B187AFCF76CFA3149FCF7BDFA0146A6
:104740002046FCF7B9FA0446DDE900239B1A2D4AFE
:10475000214602EBC303DD6A2846FCF74BFC002828
:104760003FF430AF2C462DE7DE614CE72146204672
:10477000FCF7A2FA07463DE723492846FCF73AFC36
:1047800040B1DDE900231F499B1A204A01EBC30316
:104790009A62FEE610A8FFF79BFB10A91C48FFF7E2
:1047A000F7FB294606464FF07E50FCF77BF94FF0A9
:1047B0007C51FCF781FA06F0E7FC0446154B3046C5
:1047C000996CFCF779FA2146FCF776FA2146054602
:1047D0004FF07E50FCF766F901462846FCF720FBB7
:1047E00000210446FCF706FC00B10024DDE90023AB
:1047F0009B1A044A02EBC3039C62CAE6EC13002036
:104800000AD7233C3C050020EFFF7FBFFFFF7F7FDF
:10481000C8150020A8150020064A074B10B4D2E99D
:104820000040D2E90212C3E90040C3E9021210BC01
:10483000704700BF14140020200D0020064A074BCB
:1048400012781B789A422CBF03F1230003F1FF304A
:10485000801AC0B2704700BF1C0D00201E0D002042
:1048600008B503F0EBFE044A044B12781A70BDE859
:104870000840FFF7E3BB00BF1E0D00201D0D002008
:1048800010B50446007828B102F090FC14F8010F2E
:104890000028F9D110BD00BF632870B5054620D9A6
:1048A0001C48A0FB05304009303002F07FFC1A485C
:1048B000A0FB0534E408E3B2A0FB0320C00800EB32
:1048C0008000A3EB40003030C0B202F06FFC04EB7C
:1048D0008400A5EB40003030C0B2BDE8704002F06B
:1048E00065BC092805D8BDE870403030C0B202F080
:1048F0005DBC0A26B0FBF6F404F13000C0B202F051
:1049000055FC06FB1450BDE870403030C0B202F0D8
:104910004DBC00BF1F85EB51CDCCCCCCF0B50D46C6
:1049200085B000210646FCF765FB002840F0C280F8
:10493000012D40F2C7802C466D4F30463946FCF7BA
:10494000BBF9023CE4B2012C0646F6D805F001039F
:1049500023B130466749FCF7AFF906464FF07C516A
:104960003046FCF7A1F8FCF783FB002800F0AC8090
:104970000022614EA6FB0013DB0803EB8301A0EBD2
:104980004100541C04A930300A44E4B202F8100C6F
:1049900022461846002BEDD1A54268D93021631C70
:1049A000DBB204AA22449D4202F8101C7ED9A21C4C
:1049B00004A8D2B20344954203F8101C72D9E31C38
:1049C000DBB202449D4202F8101C6FD9221DD2B204
:1049D0000344954203F8101C64D9631DDBB2024402
:1049E000AB4202F8101C61D2A21DD2B20344954220
:1049F00003F8101C56D9E31DDBB202449D4202F8B5
:104A0000101C53D904F10802D2B20344954203F8B2
:104A1000101C47D904F10903DBB202449D4202F89D
:104A2000101C43D904F10A02D2B20344954203F8A0
:104A3000101C37D904F10B03DBB202449D4202F88B
:104A4000101C33D904F10C02D2B20344954203F88E
:104A5000101C27D904F10D03DBB202449D4202F879
:104A6000101C23D90E340344E4B203F8101CA542F1
:104A700010D06CB16B1E0DEB0406DFB2A54226D040
:104A800016F8010D013C02F091FB14F0FF04F5D182
:104A900005B0F0BD302204AB6C1C2B4403F8102C85
:104AA000E4B2E6E71446A542E3D1F3E71C46A5428B
:104AB000DFD1EFE72D2002F079FB012D06F1004652
:104AC0003FF639AF2B4643E765B1044666E72E2033
:104AD00002F06CFB16F8010D02F068FB3C46002F5B
:104AE000CCD1D5E7302301248DF80030C2E700BFD8
:104AF0000000C84200002041CDCCCCCC30B5754B75
:104B000085B093F85830DB075AD400210446FCF7EF
:104B100071FA002840F0B7806F492046FCF7CCF8C6
:104B20006E49FCF7C9F84FF07C51FBF7BDFFFCF76D
:104B30009FFA002800F0AD800024694D00E01C467B
:104B4000A5FB0032D20802EB8203A0EB430004A9CC
:104B50003030631C214401F8100CDBB21046002AEF
:104B6000EDD1022B00F2AD803021A21C04A8D2B2FC
:104B70000344032A03F8101C07D00244FF2C02F858
:104B8000101C02D130238DF80230302504238DF81B
:104B900003500AE02E2002F009FB284602F006FB33
:104BA00004AA2346144414F8115C5C1E032BE4B2DF
:104BB000F0D0284602F0FAFA002CF1D105B030BD51
:104BC0004849FCF779F800210446FCF713FA00285D
:104BD00064D141492046FCF76FF83F49FCF76CF877
:104BE0004FF07C51FBF760FFFCF742FA00285BD0E6
:104BF00000243B4D00E01C46A5FB0032D20802EB2E
:104C00008203A0EB430004A93030631C214401F867
:104C1000100CDBB21046002AEDD1032B4AD830210C
:104C2000A21C04A8D2B20344042A03F8101C0FD01B
:104C30000334E4B20244042C02F8101C08D03023E0
:104C400004AA2244022C02F8103C01D18DF8033052
:104C5000302505238DF804500AE02E2002F0A6FA34
:104C6000284602F0A3FA04AA2346144414F8115C5F
:104C70005C1E042BE4B2F0D0284602F097FA002C18
:104C8000F1D105B030BD2D2002F090FA04F10044BE
:104C900042E743F23003ADF8003073E72D2002F015
:104CA00085FA04F1004494E743F230030224ADF89E
:104CB0000030C4E7042BCBD004AA1A4412F8115CCC
:104CC000D6E7032B3FF461AF04AA1A4412F8115C33
:104CD0006BE700BFA81500200000C842000020417B
:104CE000CDCCCCCC8B42213D70B54C4B84B093F8ED
:104CF0005830DB0733D400210446FCF77BF9002849
:104D000074D14FF07C512046FBF7CEFEFCF7B0F992
:104D1000002871D00024424D00E01C46A5FB003263
:104D2000D20802EB8203A0EB430004A93030631CDD
:104D3000214401F8100CDBB21046002AEDD1002B03
:104D40005AD00DF1FF32D5182D1B0DEB030414F8CA
:104D5000010D02F02BFAA542F9D104B070BD314922
:104D6000FBF7AAFF00210446FCF744F9002849D1CB
:104D70002D492046FBF7A0FF4FF07C51FBF794FE36
:104D8000FCF776F9A0B10021254CA4FB0032D20833
:104D900002EB8203A0EB430004AD4B1C30302944EE
:104DA000DBB201F8100C19461046002AEDD17BBB8E
:104DB00030238DF800303022022316468DF8012072
:104DC0005C1EE5B26D4400E05C1E304602F0EEF978
:104DD000E3B2012B15F8016DF6D12E2002F0E6F9B1
:104DE000304604B0BDE8704002F0E0B92D2002F07A
:104DF000DDF904F1004484E7302004B0BDE87040E0
:104E000002F0D4B92D2002F0D1F904F10044AFE74B
:104E1000012BD0D0294411F8116CD1E7A81500203E
:104E2000CDCCCCCC8B42213D0000204110B50121DE
:104E300082B04FF400740820FCF7ACFC0322482336
:104E400002A921F8044D09488DF806208DF8073095
:104E5000FCF7B4FA0021064A064B92F95820198053
:104E60008A42A8BF1C8002B010BD00BF000C0140E8
:104E7000A81500202614002000230749074A91F9AD
:104E8000581013809942AABF4FF400714FF4007379
:104E9000118000B113807047A8150020261400204F
:104EA00008B50548FCF710FC044B00F400701B88A3
:104EB000181A18BF012008BD000C0140261400205C
:104EC00038B50B48FCF700FC0A4B00F400701B8857
:104ED00083420CD00021084A084D094B094C11703F
:104EE0000FCB84E80F002B7843F040032B7038BDC4
:104EF000000C0140261400200214002001140020A0
:104F0000141400200414002008B5FFF7C3F920B1E1
:104F1000BDE80840022004F0ADBC08BDF8B5AE4BBA
:104F20001B78002B40F0B280AC4CAD4D2B7803F0D9
:104F3000FF05002B5BD0E80600F1A580E90700F132
:104F4000238115F0E80F33D023786EB29A0729D168
:104F500013F0280F40F04C8105F0400105F00802E5
:104F6000002B40F04D810120A070002900F06F81DE
:104F70004121A1701AB113F0E00F00F06B81A80677
:104F800010D5062001F0C4F9A378190607D42278B9
:104F9000402A00F0A081802A01D04022227043F0F4
:104FA0002003A370002EC0F23F81E82004F06CFCC7
:104FB000AB0719D515F0680F13D12378402B00F0FB
:104FC0002A81002B40F0498100232371FFF762F909
:104FD00020B1A37813F0400300F06E810023A3708A
:104FE0002370022004F050FC690700F1B5807D4B6E
:104FF0001B7803F0FF05002B73D17B4B1B7803F06C
:10500000FF0523B9237813F0FC0F38D1F8BD04F065
:1050100071FCA27A15F0010F0CBF13466423AE0792
:1050200044BF0A33DBB2680744BF0A3BDBB229073F
:1050300044BF0133DBB2EF0644BF03F1FF33DBB201
:10504000C82B28BFC8230A2B38BF0A239A4206D090
:1050500000212279A37242F0080323712173AE0666
:10506000237805F0C00220D5102B1ED1E17A00294B
:1050700040F0E4800221E172002A40F09980BDE80E
:10508000F84003F0F1BA01236370F8BD012603F084
:10509000FF05524C2846013D267001F023F9B54228
:1050A00078D94F4D04F002FC40E7002AABD0002B2A
:1050B0007ED14E4F2A063E7A05D533064CBF06F008
:1050C0007F0646F08006680605D571064CBF06F0DF
:1050D000BF0646F040063046FCF798FC23783E7247
:1050E00091E704F0FFFB217A15F0010F0CBF0B468E
:1050F0006423AF0744BF0A33DBB26E0744BF0A3BE9
:10510000DBB2280744BF0133DBB2EF0644BF03F133
:10511000FF33DBB2C82B28BFC8230A2B38BF0A23B2
:10512000607A15F0200F14BF6422024615F0400F7C
:1051300018BF322215F0800F18BF1922994202D1F0
:1051400082423FF45AAF0021237262722173FFF74B
:1051500015F9FFF785FB50E72278A37812F0D00FFE
:1051600059B201D0E27842B3002928DB13F02002C3
:105170001BD0402203F07F0343F00103A370227091
:10518000042004F081FB32E701F00CFE012004F062
:105190007BFBD6E6304601F0BBF8102004F074FB30
:1051A0000F4D2B78DE06FCD57CE7A2702270E7E776
:1051B00013F0180F3FF427AF7BE700295FDA0023D5
:1051C0002371FFF723F803F0C7F8FCF71BFDFFF787
:1051D00023FBA378CAE700BF24140020EC130020AF
:1051E00001140020E81300200014002050130020B8
:1051F000A27812F0C00F4FD005F0400105F0080270
:1052000000293FF4B7AE9F063FF5B4AEA17841F058
:105210004001A170AEE6A37813F020027FF4E1AE66
:10522000DF0651D52270CFE62378012B03D1A37876
:1052300043F00503A37080232370B6E6C80702D5A8
:1052400041F00401E172002A7FF433AF17E7002A2E
:105250003FF495AE1023237091E6DA067FF5C1AED8
:10526000A278D0077FF5BDAE102B7FF4ADAEE37A08
:10527000002B3FF4A9AE43F00803E372B1E6FFF759
:10528000EFFA23799A0703D5A27842F00102A270BF
:1052900023F00603237173E703F0D0F90222237889
:1052A0002271202B7FF458AE002EFFF668AEA37853
:1052B00063F07F03A37062E60822A370227003F0FC
:1052C000D3F902F017FE8CE65E077FF58AAE43F055
:1052D0000803A37085E61A077FF55FAE23F01C0371
:1052E00043F0020359E600BF2DE9F04F83B0FEF70B
:1052F000D1FF002800F07882867DD0F83480BE4D42
:1053000095F85830980700F16B820027BB4CA378C2
:10531000002B00F0D7806278002A40F0D380D907B4
:1053200039D5217811F0C00000F0FC8013F0040B97
:1053300000F0C181802900F0C982402900F0468236
:10534000180728D5DFF8C4A203F002019AF8090073
:10535000002800F0C780F1B995F85810890740F18E
:10536000B48021799AF8080041F00802227160B1F6
:1053700006F04000FCF74AFB01214FF07E50FEF79B
:105380004DFDA37803F0020129B943F01003022078
:10539000A37004F06FFA9A4B1B7803F0FF0B002BFD
:1053A00040F0AF80DFF868B29BF8003003F0FF0BED
:1053B000002B6FD01BF0100F40F06C811BF0010F21
:1053C00040F089811BF0E80F28D023784FFA8BF248
:1053D00099071DD113F0280F40F0B5810BF0400064
:1053E0000BF00801002B40F0B7814FF0010C84F85E
:1053F00002C0002800F01F824120A07021B113F0EC
:10540000E00F01D1102323701BF0200F40F0018228
:10541000002AC0F2D181E82004F036FA1BF0020F16
:105420001FD01BF0680F19D12378402B00F0E381C7
:10543000002B40F02C8200232371FEF72BFF002865
:1054400000F0A981A37813F0400340F0A481082262
:10545000A370227003F008F902F04CFD022004F062
:1054600013FA1BF0040F15D02178A37811F0D00F98
:105470005AB203D0E178002900F07981002AC0F205
:10548000788113F0200240F04B81A270227004203A
:1054900004F0FAF95B4B1B7803F0FF0B002B40F094
:1054A000B980594B1B7803F0FF0B002B49D12378AF
:1054B00013F0FC0F3FF42BAF03F0D6F8A378002BCA
:1054C0007FF429AF03B0BDE8F08F414606F030000D
:1054D00002F0C8FB01214FF08140FEF79FFCA3784A
:1054E00003F002019AF80820002A3FF44DAF00298A
:1054F0003FF43EAF424B1B7803F0FF0B002B3FF411
:1055000051AF4FF0010958460BF1FF3B84F8009072
:1055100000F0E8FECB4540F2F680DFF8F4B004F08E
:10552000C5F941E7E37A002B00F0B7809A0740F114
:10553000D880364B5B7A002B40F027810023E37242
:1055400029E704F0D7F91BF0010F18BF6423A27AF2
:1055500008BF13461BF0020F1CBF0A33DBB21BF05F
:10556000040F1CBF0A3BDBB21BF0080F1CBF01334A
:10557000DBB21BF0100F1CBF03F1FF33DBB2C82BF3
:1055800028BFC8230A2B38BF0A239A4206D000211D
:105590002279A37242F00803237121731BF0200FBC
:1055A00023780BF0C00202D0102B00F0C180002A3B
:1055B0003FF47EAF002B40F0FA80DFF850A01BF0E4
:1055C000800F9AF8089006D019F0800F14BF09F0E8
:1055D0007F0949F080091BF0400F06D019F0400FF9
:1055E00014BF09F0BF0949F040094846FCF70EFA1C
:1055F00023788AF808905BE7A8150020EC130020B8
:1056000024140020E8130020001400205013002070
:105610000114002004F066F91BF0010F18BF642389
:10562000227A607A08BF13461BF0020F1CBF0A33B0
:10563000DBB21BF0040F1CBF0A3BDBB21BF0080FF0
:105640001CBF0133DBB21BF0100F1CBF03F1FF3393
:10565000DBB2C82B28BFC8230A2B38BF0A231BF094
:10566000200F14BF642101461BF0400F18BF3221E8
:105670001BF0800F18BF19219A4202D188423FF4D3
:1056800010AF0022237261722273FEF777FEFFF7DC
:10569000E7F806E70123637039E623791B077FF5F6
:1056A0007AAE414606F0300002F0DCFA237923F0AE
:1056B000080323716FE63946584684F80BB002F0B0
:1056C000D1FA5846FCF7A2F9A37823F0020343F07D
:1056D0000403A3705FE601F065FB012004F0D4F839
:1056E00070E613F00C0F3FF456AE894A527A002A46
:1056F00040F0DF801A077FF521AF022004F0BAF8EE
:105700000023E37247E6484600F002FE102004F052
:10571000BBF8DFF800B29BF80030D806FBD5FEE6F8
:10572000402203F07F0343F00103A3702270AEE632
:10573000E17AB9B3C80737D541F00401E172002A14
:105740007FF43BAFB8E6A17811F0C00F00F0848081
:105750000BF040000BF0080100283FF44FAE980614
:105760003FF54CAEA07840F04000A07046E6002A1D
:1057700065DA00232371FEF749FD02F0EDFDFCF729
:1057800041FAFFF749F8A3787BE6394602F06AFA56
:105790000123E372FFE500230220A370237004F0CD
:1057A00073F85EE60221E172002A3FF485AE13F041
:1057B000180F3FF47DAE00E72378012B03D1A378C7
:1057C00043F00503A3708023237024E603F01EFE3C
:1057D000A37800287FF4B4AD03F0DF03A370AFE536
:1057E000202004F075F890E5494B5E7A1A7AD3F8D8
:1057F0000C80164383E5A37813F020027FF42EAECD
:10580000D9067CD458077FF529AE43F00803A3706E
:1058100024E60620019200F07BFDA378019A13F0A4
:10582000800F04D12178402928D080292CD143F041
:105830002003A370ECE500297FF4E4ADE4E5FFF775
:105840000FF823799A0703D5A27842F00102A270DB
:1058500023F0060323711AE6019202F0EFFE022103
:1058600023782171202B019A7FF4B8AD002AFFF62E
:10587000CBADA37863F07F03A370C5E5180703D50C
:1058800023F01C0343F0020340212170CFE7DA0626
:105890007FF5E4ADA278D1077FF5E0AD102B7FF462
:1058A000CAADE37A002B3FF4C6AD43F00803E372C0
:1058B000D4E50A2000F02CFD95F85830990720D542
:1058C0002279E37A42F00802227113E70B20019259
:1058D00000F01EFD019A0021104602F0C3F9019A62
:1058E0001046FCF793F802F045FB6378002B7FF439
:1058F000E9ADFFF713FB6378002BFAD0E2E52270E5
:1059000099E5414606F0300002F0ACF9E37AF1E6A1
:105910005013002001140020F8B5AB4B1B78002B6E
:1059200040F0BA80A94CAA4D2B7803F0FF05002B5C
:105930005BD0E80600F1AD80E90700F12B8115F09E
:10594000E80F33D023786EB29A0729D113F0280FCD
:1059500040F0548105F0400105F00802002B40F0B2
:1059600055810120A070002900F077814121A170AC
:105970001AB113F0E00F00F07381A80610D50620CD
:1059800000F0C6FCA378190607D42278402A00F05C
:10599000A881802A01D04022227043F02003A37006
:1059A000002EC0F24781E82003F06EFFAB0719D547
:1059B00015F0680F13D12378402B00F03281002BB3
:1059C00040F0518100232371FEF764FC20B1A378DD
:1059D00013F0400300F076810023A37023700220AF
:1059E00003F052FF690700F1BD807A4B1B7803F08A
:1059F000FF05002B7BD1784B1B7803F0FF053BB9EB
:105A0000237813F0FC0F3BD1A378002B3DD1F8BDD8
:105A100003F070FFA27A15F0010F0CBF1346642348
:105A2000AE0744BF0A33DBB2680744BF0A3BDBB2B0
:105A3000290744BF0133DBB2EF0644BF03F1FF3354
:105A4000DBB2C82B28BFC8230A2B38BF0A239A42CF
:105A500006D000212279A37242F00803237121733A
:105A6000AE06237805F0C00225D5102B23D1E17AAC
:105A7000002940F0E9800221E172002A40F09E8076
:105A800002F0F2FDA378002BC1D0BDE8F840FFF78B
:105A90002BBC01236370B7E7012603F0FF054B4CD5
:105AA0002846013D267000F01DFCB54278D9484DCE
:105AB00003F0FCFE38E7002AA3D0002B7ED1474F2D
:105AC0002A063E7A05D533064CBF06F07F0646F01F
:105AD0008006680605D571064CBF06F0BF0646F085
